{
  "contractName": "Crowdsale",
  "abi": [
    {
      "inputs": [
        {
          "internalType": "uint256",
          "name": "rate",
          "type": "uint256"
        },
        {
          "internalType": "address payable",
          "name": "wallet",
          "type": "address"
        },
        {
          "internalType": "contract IERC20",
          "name": "token",
          "type": "address"
        }
      ],
      "stateMutability": "nonpayable",
      "type": "constructor"
    },
    {
      "anonymous": false,
      "inputs": [
        {
          "indexed": true,
          "internalType": "address",
          "name": "purchaser",
          "type": "address"
        },
        {
          "indexed": true,
          "internalType": "address",
          "name": "beneficiary",
          "type": "address"
        },
        {
          "indexed": false,
          "internalType": "uint256",
          "name": "value",
          "type": "uint256"
        },
        {
          "indexed": false,
          "internalType": "uint256",
          "name": "amount",
          "type": "uint256"
        }
      ],
      "name": "TokensPurchased",
      "type": "event"
    },
    {
      "stateMutability": "payable",
      "type": "receive"
    },
    {
      "inputs": [],
      "name": "weiRaised",
      "outputs": [
        {
          "internalType": "uint256",
          "name": "",
          "type": "uint256"
        }
      ],
      "stateMutability": "view",
      "type": "function"
    },
    {
      "inputs": [
        {
          "internalType": "address",
          "name": "beneficiary",
          "type": "address"
        }
      ],
      "name": "buyTokens",
      "outputs": [],
      "stateMutability": "payable",
      "type": "function"
    }
  ],
  "bytecode": "0x60806040523480156200001157600080fd5b506040516200125b3803806200125b833981810160405281019062000037919062000242565b60016000819055506000831162000085576040517f08c379a00000000000000000000000000000000000000000000000000000000081526004016200007c9062000335565b60405180910390fd5b600073ffffffffffffffffffffffffffffffffffffffff168273ffffffffffffffffffffffffffffffffffffffff161415620000f8576040517f08c379a0000000000000000000000000000000000000000000000000000000008152600401620000ef9062000357565b60405180910390fd5b600073ffffffffffffffffffffffffffffffffffffffff168173ffffffffffffffffffffffffffffffffffffffff1614156200016b576040517f08c379a0000000000000000000000000000000000000000000000000000000008152600401620001629062000313565b60405180910390fd5b8260038190555081600260006101000a81548173ffffffffffffffffffffffffffffffffffffffff021916908373ffffffffffffffffffffffffffffffffffffffff16021790555080600160006101000a81548173ffffffffffffffffffffffffffffffffffffffff021916908373ffffffffffffffffffffffffffffffffffffffff1602179055505050506200050a565b6000815190506200020e81620004bc565b92915050565b6000815190506200022581620004d6565b92915050565b6000815190506200023c81620004f0565b92915050565b6000806000606084860312156200025e576200025d620003f0565b5b60006200026e868287016200022b565b93505060206200028186828701620001fd565b9250506040620002948682870162000214565b9150509250925092565b6000620002ad60248362000379565b9150620002ba82620003f5565b604082019050919050565b6000620002d460148362000379565b9150620002e18262000444565b602082019050919050565b6000620002fb60258362000379565b915062000308826200046d565b604082019050919050565b600060208201905081810360008301526200032e816200029e565b9050919050565b600060208201905081810360008301526200035081620002c5565b9050919050565b600060208201905081810360008301526200037281620002ec565b9050919050565b600082825260208201905092915050565b60006200039782620003c6565b9050919050565b6000620003ab82620003c6565b9050919050565b6000620003bf826200038a565b9050919050565b600073ffffffffffffffffffffffffffffffffffffffff82169050919050565b6000819050919050565b600080fd5b7f43726f776473616c653a20746f6b656e20697320746865207a65726f2061646460008201527f7265737300000000000000000000000000000000000000000000000000000000602082015250565b7f43726f776473616c653a20726174652069732030000000000000000000000000600082015250565b7f43726f776473616c653a2077616c6c657420697320746865207a65726f20616460008201527f6472657373000000000000000000000000000000000000000000000000000000602082015250565b620004c7816200039e565b8114620004d357600080fd5b50565b620004e181620003b2565b8114620004ed57600080fd5b50565b620004fb81620003e6565b81146200050757600080fd5b50565b610d41806200051a6000396000f3fe60806040526004361061002d5760003560e01c80634042b66f14610049578063ec8ac4d81461007457610044565b366100445761004261003d610090565b610098565b005b600080fd5b34801561005557600080fd5b5061005e6101be565b60405161006b919061098f565b60405180910390f35b61008e600480360381019061008991906106b9565b610098565b005b600033905090565b600260005414156100de576040517f08c379a00000000000000000000000000000000000000000000000000000000081526004016100d59061094f565b60405180910390fd5b600260008190555060003490506100f582826101c8565b600061010082610280565b90506101178260045461029e90919063ffffffff16565b60048190555061012783826102b4565b8273ffffffffffffffffffffffffffffffffffffffff16610146610090565b73ffffffffffffffffffffffffffffffffffffffff167f6faf93231a456e552dbc9961f58d9713ee4f2e69d15f1975b050ef0911053a7b848460405161018d9291906109aa565b60405180910390a361019f83836102c2565b6101a76102c6565b6101b18383610331565b5050600160008190555050565b6000600454905090565b600073ffffffffffffffffffffffffffffffffffffffff168273ffffffffffffffffffffffffffffffffffffffff161415610238576040517f08c379a000000000000000000000000000000000000000000000000000000000815260040161022f906108ef565b60405180910390fd5b600081141561027c576040517f08c379a00000000000000000000000000000000000000000000000000000000081526004016102739061096f565b60405180910390fd5b5050565b60006102976003548361033590919063ffffffff16565b9050919050565b600081836102ac9190610a05565b905092915050565b6102be828261034b565b5050565b5050565b600260009054906101000a900473ffffffffffffffffffffffffffffffffffffffff1673ffffffffffffffffffffffffffffffffffffffff166108fc349081150290604051600060405180830381858888f1935050505015801561032e573d6000803e3d6000fd5b50565b5050565b600081836103439190610a5b565b905092915050565b6103988282600160009054906101000a900473ffffffffffffffffffffffffffffffffffffffff1673ffffffffffffffffffffffffffffffffffffffff1661039c9092919063ffffffff16565b5050565b61041d8363a9059cbb60e01b84846040516024016103bb929190610884565b604051602081830303815290604052907bffffffffffffffffffffffffffffffffffffffffffffffffffffffff19166020820180517bffffffffffffffffffffffffffffffffffffffffffffffffffffffff8381831617835250505050610422565b505050565b6000610484826040518060400160405280602081526020017f5361666545524332303a206c6f772d6c6576656c2063616c6c206661696c65648152508573ffffffffffffffffffffffffffffffffffffffff166104e99092919063ffffffff16565b90506000815111156104e457808060200190518101906104a491906106e6565b6104e3576040517f08c379a00000000000000000000000000000000000000000000000000000000081526004016104da9061092f565b60405180910390fd5b5b505050565b60606104f88484600085610501565b90509392505050565b606082471015610546576040517f08c379a000000000000000000000000000000000000000000000000000000000815260040161053d906108cf565b60405180910390fd5b61054f85610615565b61058e576040517f08c379a00000000000000000000000000000000000000000000000000000000081526004016105859061090f565b60405180910390fd5b6000808673ffffffffffffffffffffffffffffffffffffffff1685876040516105b7919061086d565b60006040518083038185875af1925050503d80600081146105f4576040519150601f19603f3d011682016040523d82523d6000602084013e6105f9565b606091505b5091509150610609828286610628565b92505050949350505050565b600080823b905060008111915050919050565b6060831561063857829050610688565b60008351111561064b5782518084602001fd5b816040517f08c379a000000000000000000000000000000000000000000000000000000000815260040161067f91906108ad565b60405180910390fd5b9392505050565b60008135905061069e81610cdd565b92915050565b6000815190506106b381610cf4565b92915050565b6000602082840312156106cf576106ce610b5f565b5b60006106dd8482850161068f565b91505092915050565b6000602082840312156106fc576106fb610b5f565b5b600061070a848285016106a4565b91505092915050565b61071c81610ab5565b82525050565b600061072d826109d3565b61073781856109e9565b9350610747818560208601610afd565b80840191505092915050565b600061075e826109de565b61076881856109f4565b9350610778818560208601610afd565b61078181610b64565b840191505092915050565b60006107996026836109f4565b91506107a482610b75565b604082019050919050565b60006107bc602a836109f4565b91506107c782610bc4565b604082019050919050565b60006107df601d836109f4565b91506107ea82610c13565b602082019050919050565b6000610802602a836109f4565b915061080d82610c3c565b604082019050919050565b6000610825601f836109f4565b915061083082610c8b565b602082019050919050565b60006108486019836109f4565b915061085382610cb4565b602082019050919050565b61086781610af3565b82525050565b60006108798284610722565b915081905092915050565b60006040820190506108996000830185610713565b6108a6602083018461085e565b9392505050565b600060208201905081810360008301526108c78184610753565b905092915050565b600060208201905081810360008301526108e88161078c565b9050919050565b60006020820190508181036000830152610908816107af565b9050919050565b60006020820190508181036000830152610928816107d2565b9050919050565b60006020820190508181036000830152610948816107f5565b9050919050565b6000602082019050818103600083015261096881610818565b9050919050565b600060208201905081810360008301526109888161083b565b9050919050565b60006020820190506109a4600083018461085e565b92915050565b60006040820190506109bf600083018561085e565b6109cc602083018461085e565b9392505050565b600081519050919050565b600081519050919050565b600081905092915050565b600082825260208201905092915050565b6000610a1082610af3565b9150610a1b83610af3565b9250827fffffffffffffffffffffffffffffffffffffffffffffffffffffffffffffffff03821115610a5057610a4f610b30565b5b828201905092915050565b6000610a6682610af3565b9150610a7183610af3565b9250817fffffffffffffffffffffffffffffffffffffffffffffffffffffffffffffffff0483118215151615610aaa57610aa9610b30565b5b828202905092915050565b6000610ac082610ad3565b9050919050565b60008115159050919050565b600073ffffffffffffffffffffffffffffffffffffffff82169050919050565b6000819050919050565b60005b83811015610b1b578082015181840152602081019050610b00565b83811115610b2a576000848401525b50505050565b7f4e487b7100000000000000000000000000000000000000000000000000000000600052601160045260246000fd5b600080fd5b6000601f19601f8301169050919050565b7f416464726573733a20696e73756666696369656e742062616c616e636520666f60008201527f722063616c6c0000000000000000000000000000000000000000000000000000602082015250565b7f43726f776473616c653a2062656e656669636961727920697320746865207a6560008201527f726f206164647265737300000000000000000000000000000000000000000000602082015250565b7f416464726573733a2063616c6c20746f206e6f6e2d636f6e7472616374000000600082015250565b7f5361666545524332303a204552433230206f7065726174696f6e20646964206e60008201527f6f74207375636365656400000000000000000000000000000000000000000000602082015250565b7f5265656e7472616e637947756172643a207265656e7472616e742063616c6c00600082015250565b7f43726f776473616c653a20776569416d6f756e74206973203000000000000000600082015250565b610ce681610ab5565b8114610cf157600080fd5b50565b610cfd81610ac7565b8114610d0857600080fd5b5056fea2646970667358221220195364e5bc4639249425585eeeb9a1ac148c04a93c3a26a27aaf3a0dd7b5473c64736f6c63430008060033",
  "immutableReferences": {},
  "source": "// SPDX-License-Identifier: MIT\r\npragma solidity >=0.8.4;\r\n\r\nimport \"@openzeppelin/contracts/security/ReentrancyGuard.sol\";\r\nimport \"@openzeppelin/contracts/utils/Context.sol\";\r\nimport \"@openzeppelin/contracts/token/ERC20/IERC20.sol\";\r\nimport \"@openzeppelin/contracts/utils/math/SafeMath.sol\";\r\nimport \"@openzeppelin/contracts/token/ERC20/utils/SafeERC20.sol\";\r\n\r\ncontract Crowdsale is Context, ReentrancyGuard {\r\n    using SafeMath for uint256;\r\n    using SafeERC20 for IERC20;\r\n\r\n    // The token being sold\r\n    IERC20 private _token;\r\n\r\n    // Address where funds are collected\r\n    address payable private _wallet;\r\n\r\n    // How many token units a buyer gets per wei.\r\n    // The rate is the conversion between wei and the smallest and indivisible token unit.\r\n    // So, if you are using a rate of 1 with a ERC20Detailed token with 3 decimals called TOK\r\n    // 1 wei will give you 1 unit, or 0.001 TOK.\r\n    uint256 private _rate;\r\n\r\n    // Amount of wei raised\r\n    uint256 private _weiRaised;\r\n\r\n    /**\r\n     * Event for token purchase logging\r\n     * @param purchaser who paid for the tokens\r\n     * @param beneficiary who got the tokens\r\n     * @param value weis paid for purchase\r\n     * @param amount amount of tokens purchased\r\n     */\r\n    event TokensPurchased(address indexed purchaser, address indexed beneficiary, uint256 value, uint256 amount);\r\n\r\n    /**\r\n     * @param rate Number of token units a buyer gets per wei\r\n     * @dev The rate is the conversion between wei and the smallest and indivisible\r\n     * token unit. So, if you are using a rate of 1 with a ERC20Detailed token\r\n     * with 3 decimals called TOK, 1 wei will give you 1 unit, or 0.001 TOK.\r\n     * @param wallet Address where collected funds will be forwarded to\r\n     * @param token Address of the token being sold\r\n     */\r\n    constructor (uint256 rate, address payable wallet, IERC20 token) {\r\n        require(rate > 0, \"Crowdsale: rate is 0\");\r\n        require(wallet != address(0), \"Crowdsale: wallet is the zero address\");\r\n        require(address(token) != address(0), \"Crowdsale: token is the zero address\");\r\n\r\n        _rate = rate;\r\n        _wallet = wallet;\r\n        _token = token;\r\n    }\r\n\r\n    /**\r\n     * @dev fallback function ***DO NOT OVERRIDE***\r\n     * Note that other contracts will transfer funds with a base gas stipend\r\n     * of 2300, which is not enough to call buyTokens. Consider calling\r\n     * buyTokens directly when purchasing tokens from a contract.\r\n     */\r\n    receive () external payable {\r\n        buyTokens(_msgSender());\r\n    }\r\n\r\n    /**\r\n     * @return the token being sold.\r\n     */\r\n    /*function token() public view returns (IERC20) {\r\n        return _token;\r\n    }*/\r\n\r\n    /**\r\n     * @return the address where funds are collected.\r\n     */\r\n    /*function wallet() public view returns (address payable) {\r\n        return _wallet;\r\n    }*/\r\n\r\n    /**\r\n     * @return the number of token units a buyer gets per wei.\r\n     */\r\n    /*function rate() public view returns (uint256) {\r\n        return _rate;\r\n    }*/\r\n\r\n    /**\r\n     * @return the amount of wei raised.\r\n     */\r\n    function weiRaised() public view returns (uint256) {\r\n        return _weiRaised;\r\n    }\r\n\r\n    /**\r\n     * @dev low level token purchase ***DO NOT OVERRIDE***\r\n     * This function has a non-reentrancy guard, so it shouldn't be called by\r\n     * another `nonReentrant` function.\r\n     * @param beneficiary Recipient of the token purchase\r\n     */\r\n    function buyTokens(address beneficiary) public nonReentrant payable {\r\n        uint256 weiAmount = msg.value;\r\n        _preValidatePurchase(beneficiary, weiAmount);\r\n\r\n        // calculate token amount to be created\r\n        uint256 tokens = _getTokenAmount(weiAmount);\r\n\r\n        // update state\r\n        _weiRaised = _weiRaised.add(weiAmount);\r\n\r\n        _processPurchase(beneficiary, tokens);\r\n        emit TokensPurchased(_msgSender(), beneficiary, weiAmount, tokens);\r\n\r\n        _updatePurchasingState(beneficiary, weiAmount);\r\n\r\n        _forwardFunds();\r\n        _postValidatePurchase(beneficiary, weiAmount);\r\n    }\r\n\r\n    /**\r\n     * @dev Validation of an incoming purchase. Use require statements to revert state when conditions are not met.\r\n     * Use `super` in contracts that inherit from Crowdsale to extend their validations.\r\n     * Example from CappedCrowdsale.sol's _preValidatePurchase method:\r\n     *     super._preValidatePurchase(beneficiary, weiAmount);\r\n     *     require(weiRaised().add(weiAmount) <= cap);\r\n     * @param beneficiary Address performing the token purchase\r\n     * @param weiAmount Value in wei involved in the purchase\r\n     */\r\n    function _preValidatePurchase(address beneficiary, uint256 weiAmount) internal view virtual {\r\n        require(beneficiary != address(0), \"Crowdsale: beneficiary is the zero address\");\r\n        require(weiAmount != 0, \"Crowdsale: weiAmount is 0\");\r\n        this; // silence state mutability warning without generating bytecode - see https://github.com/ethereum/solidity/issues/2691\r\n    }\r\n\r\n    /**\r\n     * @dev Validation of an executed purchase. Observe state and use revert statements to undo rollback when valid\r\n     * conditions are not met.\r\n     * @param beneficiary Address performing the token purchase\r\n     * @param weiAmount Value in wei involved in the purchase\r\n     */\r\n    function _postValidatePurchase(address beneficiary, uint256 weiAmount) internal view virtual {\r\n        // solhint-disable-previous-line no-empty-blocks\r\n    }\r\n\r\n    /**\r\n     * @dev Source of tokens. Override this method to modify the way in which the crowdsale ultimately gets and sends\r\n     * its tokens.\r\n     * @param beneficiary Address performing the token purchase\r\n     * @param tokenAmount Number of tokens to be emitted\r\n     */\r\n    function _deliverTokens(address beneficiary, uint256 tokenAmount) internal virtual {\r\n        _token.safeTransfer(beneficiary, tokenAmount);\r\n    }\r\n\r\n    /**\r\n     * @dev Executed when a purchase has been validated and is ready to be executed. Doesn't necessarily emit/send\r\n     * tokens.\r\n     * @param beneficiary Address receiving the tokens\r\n     * @param tokenAmount Number of tokens to be purchased\r\n     */\r\n    function _processPurchase(address beneficiary, uint256 tokenAmount) internal virtual {\r\n        _deliverTokens(beneficiary, tokenAmount);\r\n    }\r\n\r\n    /**\r\n     * @dev Override for extensions that require an internal state to check for validity (current user contributions,\r\n     * etc.)\r\n     * @param beneficiary Address receiving the tokens\r\n     * @param weiAmount Value in wei involved in the purchase\r\n     */\r\n    function _updatePurchasingState(address beneficiary, uint256 weiAmount) internal virtual {\r\n        // solhint-disable-previous-line no-empty-blocks\r\n    }\r\n\r\n    /**\r\n     * @dev Override to extend the way in which ether is converted to tokens.\r\n     * @param weiAmount Value in wei to be converted into tokens\r\n     * @return Number of tokens that can be purchased with the specified _weiAmount\r\n     */\r\n    function _getTokenAmount(uint256 weiAmount) internal view virtual returns (uint256) {\r\n        return weiAmount.mul(_rate);\r\n    }\r\n\r\n    /**\r\n     * @dev Determines how ETH is stored/forwarded on purchases.\r\n     */\r\n    function _forwardFunds() internal {\r\n        _wallet.transfer(msg.value);\r\n    }\r\n}",
  "sourcePath": "F:/Tutorial/Solidity/s06_tokenization/contracts/Crowdsale.sol",
  "compiler": {
    "name": "solc",
    "version": "0.8.6+commit.11564f7e.Emscripten.clang"
  },
  "schemaVersion": "3.4.1",
  "updatedAt": "2021-07-13T01:50:36.514Z",
  "devdoc": {
    "events": {
      "TokensPurchased(address,address,uint256,uint256)": {
        "params": {
          "amount": "amount of tokens purchased",
          "beneficiary": "who got the tokens",
          "purchaser": "who paid for the tokens",
          "value": "weis paid for purchase"
        }
      }
    },
    "kind": "dev",
    "methods": {
      "buyTokens(address)": {
        "details": "low level token purchase ***DO NOT OVERRIDE*** This function has a non-reentrancy guard, so it shouldn't be called by another `nonReentrant` function.",
        "params": {
          "beneficiary": "Recipient of the token purchase"
        }
      },
      "constructor": {
        "details": "The rate is the conversion between wei and the smallest and indivisible token unit. So, if you are using a rate of 1 with a ERC20Detailed token with 3 decimals called TOK, 1 wei will give you 1 unit, or 0.001 TOK.",
        "params": {
          "rate": "Number of token units a buyer gets per wei",
          "token": "Address of the token being sold",
          "wallet": "Address where collected funds will be forwarded to"
        }
      },
      "weiRaised()": {
        "returns": {
          "_0": "the amount of wei raised."
        }
      }
    },
    "version": 1
  },
  "userdoc": {
    "events": {
      "TokensPurchased(address,address,uint256,uint256)": {
        "notice": "Event for token purchase logging"
      }
    },
    "kind": "user",
    "methods": {},
    "version": 1
  }
}