{
  "contractName": "MyTokenSale",
  "abi": [
    {
      "inputs": [
        {
          "internalType": "uint256",
          "name": "rate",
          "type": "uint256"
        },
        {
          "internalType": "address payable",
          "name": "wallet",
          "type": "address"
        },
        {
          "internalType": "contract IERC20",
          "name": "token",
          "type": "address"
        },
        {
          "internalType": "contract KycContract",
          "name": "_kyc",
          "type": "address"
        }
      ],
      "stateMutability": "nonpayable",
      "type": "constructor"
    },
    {
      "anonymous": false,
      "inputs": [
        {
          "indexed": true,
          "internalType": "address",
          "name": "purchaser",
          "type": "address"
        },
        {
          "indexed": true,
          "internalType": "address",
          "name": "beneficiary",
          "type": "address"
        },
        {
          "indexed": false,
          "internalType": "uint256",
          "name": "value",
          "type": "uint256"
        },
        {
          "indexed": false,
          "internalType": "uint256",
          "name": "amount",
          "type": "uint256"
        }
      ],
      "name": "TokensPurchased",
      "type": "event"
    },
    {
      "inputs": [
        {
          "internalType": "address",
          "name": "beneficiary",
          "type": "address"
        }
      ],
      "name": "buyTokens",
      "outputs": [],
      "stateMutability": "payable",
      "type": "function",
      "payable": true
    },
    {
      "inputs": [],
      "name": "weiRaised",
      "outputs": [
        {
          "internalType": "uint256",
          "name": "",
          "type": "uint256"
        }
      ],
      "stateMutability": "view",
      "type": "function",
      "constant": true
    },
    {
      "stateMutability": "payable",
      "type": "receive",
      "payable": true
    }
  ],
  "bytecode": "0x60806040523480156200001157600080fd5b506040516200147d3803806200147d8339818101604052810190620000379190620002a1565b83838360016000819055506000831162000088576040517f08c379a00000000000000000000000000000000000000000000000000000000081526004016200007f90620003aa565b60405180910390fd5b600073ffffffffffffffffffffffffffffffffffffffff168273ffffffffffffffffffffffffffffffffffffffff161415620000fb576040517f08c379a0000000000000000000000000000000000000000000000000000000008152600401620000f290620003cc565b60405180910390fd5b600073ffffffffffffffffffffffffffffffffffffffff168173ffffffffffffffffffffffffffffffffffffffff1614156200016e576040517f08c379a0000000000000000000000000000000000000000000000000000000008152600401620001659062000388565b60405180910390fd5b8260038190555081600260006101000a81548173ffffffffffffffffffffffffffffffffffffffff021916908373ffffffffffffffffffffffffffffffffffffffff16021790555080600160006101000a81548173ffffffffffffffffffffffffffffffffffffffff021916908373ffffffffffffffffffffffffffffffffffffffff16021790555050505080600560006101000a81548173ffffffffffffffffffffffffffffffffffffffff021916908373ffffffffffffffffffffffffffffffffffffffff16021790555050505050620005ad565b600081519050620002568162000545565b92915050565b6000815190506200026d816200055f565b92915050565b600081519050620002848162000579565b92915050565b6000815190506200029b8162000593565b92915050565b60008060008060808587031215620002be57620002bd62000479565b5b6000620002ce878288016200028a565b9450506020620002e18782880162000245565b9350506040620002f4878288016200025c565b9250506060620003078782880162000273565b91505092959194509250565b600062000322602483620003ee565b91506200032f826200047e565b604082019050919050565b600062000349601483620003ee565b91506200035682620004cd565b602082019050919050565b600062000370602583620003ee565b91506200037d82620004f6565b604082019050919050565b60006020820190508181036000830152620003a38162000313565b9050919050565b60006020820190508181036000830152620003c5816200033a565b9050919050565b60006020820190508181036000830152620003e78162000361565b9050919050565b600082825260208201905092915050565b60006200040c826200044f565b9050919050565b600062000420826200044f565b9050919050565b60006200043482620003ff565b9050919050565b60006200044882620003ff565b9050919050565b600073ffffffffffffffffffffffffffffffffffffffff82169050919050565b6000819050919050565b600080fd5b7f43726f776473616c653a20746f6b656e20697320746865207a65726f2061646460008201527f7265737300000000000000000000000000000000000000000000000000000000602082015250565b7f43726f776473616c653a20726174652069732030000000000000000000000000600082015250565b7f43726f776473616c653a2077616c6c657420697320746865207a65726f20616460008201527f6472657373000000000000000000000000000000000000000000000000000000602082015250565b620005508162000413565b81146200055c57600080fd5b50565b6200056a8162000427565b81146200057657600080fd5b50565b62000584816200043b565b81146200059057600080fd5b50565b6200059e816200046f565b8114620005aa57600080fd5b50565b610ec080620005bd6000396000f3fe60806040526004361061002d5760003560e01c80634042b66f14610049578063ec8ac4d81461007457610044565b366100445761004261003d610090565b610098565b005b600080fd5b34801561005557600080fd5b5061005e6101be565b60405161006b9190610ae5565b60405180910390f35b61008e600480360381019061008991906107b1565b610098565b005b600033905090565b600260005414156100de576040517f08c379a00000000000000000000000000000000000000000000000000000000081526004016100d590610aa5565b60405180910390fd5b600260008190555060003490506100f582826101c8565b6000610100826102c0565b9050610117826004546102de90919063ffffffff16565b60048190555061012783826102f4565b8273ffffffffffffffffffffffffffffffffffffffff16610146610090565b73ffffffffffffffffffffffffffffffffffffffff167f6faf93231a456e552dbc9961f58d9713ee4f2e69d15f1975b050ef0911053a7b848460405161018d929190610b00565b60405180910390a361019f8383610302565b6101a7610306565b6101b18383610371565b5050600160008190555050565b6000600454905090565b6101d28282610375565b600560009054906101000a900473ffffffffffffffffffffffffffffffffffffffff1673ffffffffffffffffffffffffffffffffffffffff1663df235fe4836040518263ffffffff1660e01b815260040161022d919061099f565b60206040518083038186803b15801561024557600080fd5b505afa158015610259573d6000803e3d6000fd5b505050506040513d601f19601f8201168201806040525081019061027d91906107de565b6102bc576040517f08c379a00000000000000000000000000000000000000000000000000000000081526004016102b390610a25565b60405180910390fd5b5050565b60006102d76003548361042d90919063ffffffff16565b9050919050565b600081836102ec9190610b5b565b905092915050565b6102fe8282610443565b5050565b5050565b600260009054906101000a900473ffffffffffffffffffffffffffffffffffffffff1673ffffffffffffffffffffffffffffffffffffffff166108fc349081150290604051600060405180830381858888f1935050505015801561036e573d6000803e3d6000fd5b50565b5050565b600073ffffffffffffffffffffffffffffffffffffffff168273ffffffffffffffffffffffffffffffffffffffff1614156103e5576040517f08c379a00000000000000000000000000000000000000000000000000000000081526004016103dc90610a45565b60405180910390fd5b6000811415610429576040517f08c379a000000000000000000000000000000000000000000000000000000000815260040161042090610ac5565b60405180910390fd5b5050565b6000818361043b9190610bb1565b905092915050565b6104908282600160009054906101000a900473ffffffffffffffffffffffffffffffffffffffff1673ffffffffffffffffffffffffffffffffffffffff166104949092919063ffffffff16565b5050565b6105158363a9059cbb60e01b84846040516024016104b39291906109ba565b604051602081830303815290604052907bffffffffffffffffffffffffffffffffffffffffffffffffffffffff19166020820180517bffffffffffffffffffffffffffffffffffffffffffffffffffffffff838183161783525050505061051a565b505050565b600061057c826040518060400160405280602081526020017f5361666545524332303a206c6f772d6c6576656c2063616c6c206661696c65648152508573ffffffffffffffffffffffffffffffffffffffff166105e19092919063ffffffff16565b90506000815111156105dc578080602001905181019061059c91906107de565b6105db576040517f08c379a00000000000000000000000000000000000000000000000000000000081526004016105d290610a85565b60405180910390fd5b5b505050565b60606105f084846000856105f9565b90509392505050565b60608247101561063e576040517f08c379a000000000000000000000000000000000000000000000000000000000815260040161063590610a05565b60405180910390fd5b6106478561070d565b610686576040517f08c379a000000000000000000000000000000000000000000000000000000000815260040161067d90610a65565b60405180910390fd5b6000808673ffffffffffffffffffffffffffffffffffffffff1685876040516106af9190610988565b60006040518083038185875af1925050503d80600081146106ec576040519150601f19603f3d011682016040523d82523d6000602084013e6106f1565b606091505b5091509150610701828286610720565b92505050949350505050565b600080823b905060008111915050919050565b6060831561073057829050610780565b6000835111156107435782518084602001fd5b816040517f08c379a000000000000000000000000000000000000000000000000000000000815260040161077791906109e3565b60405180910390fd5b9392505050565b60008135905061079681610e5c565b92915050565b6000815190506107ab81610e73565b92915050565b6000602082840312156107c7576107c6610cb5565b5b60006107d584828501610787565b91505092915050565b6000602082840312156107f4576107f3610cb5565b5b60006108028482850161079c565b91505092915050565b61081481610c0b565b82525050565b600061082582610b29565b61082f8185610b3f565b935061083f818560208601610c53565b80840191505092915050565b600061085682610b34565b6108608185610b4a565b9350610870818560208601610c53565b61087981610cba565b840191505092915050565b6000610891602683610b4a565b915061089c82610ccb565b604082019050919050565b60006108b4601f83610b4a565b91506108bf82610d1a565b602082019050919050565b60006108d7602a83610b4a565b91506108e282610d43565b604082019050919050565b60006108fa601d83610b4a565b915061090582610d92565b602082019050919050565b600061091d602a83610b4a565b915061092882610dbb565b604082019050919050565b6000610940601f83610b4a565b915061094b82610e0a565b602082019050919050565b6000610963601983610b4a565b915061096e82610e33565b602082019050919050565b61098281610c49565b82525050565b6000610994828461081a565b915081905092915050565b60006020820190506109b4600083018461080b565b92915050565b60006040820190506109cf600083018561080b565b6109dc6020830184610979565b9392505050565b600060208201905081810360008301526109fd818461084b565b905092915050565b60006020820190508181036000830152610a1e81610884565b9050919050565b60006020820190508181036000830152610a3e816108a7565b9050919050565b60006020820190508181036000830152610a5e816108ca565b9050919050565b60006020820190508181036000830152610a7e816108ed565b9050919050565b60006020820190508181036000830152610a9e81610910565b9050919050565b60006020820190508181036000830152610abe81610933565b9050919050565b60006020820190508181036000830152610ade81610956565b9050919050565b6000602082019050610afa6000830184610979565b92915050565b6000604082019050610b156000830185610979565b610b226020830184610979565b9392505050565b600081519050919050565b600081519050919050565b600081905092915050565b600082825260208201905092915050565b6000610b6682610c49565b9150610b7183610c49565b9250827fffffffffffffffffffffffffffffffffffffffffffffffffffffffffffffffff03821115610ba657610ba5610c86565b5b828201905092915050565b6000610bbc82610c49565b9150610bc783610c49565b9250817fffffffffffffffffffffffffffffffffffffffffffffffffffffffffffffffff0483118215151615610c0057610bff610c86565b5b828202905092915050565b6000610c1682610c29565b9050919050565b60008115159050919050565b600073ffffffffffffffffffffffffffffffffffffffff82169050919050565b6000819050919050565b60005b83811015610c71578082015181840152602081019050610c56565b83811115610c80576000848401525b50505050565b7f4e487b7100000000000000000000000000000000000000000000000000000000600052601160045260246000fd5b600080fd5b6000601f19601f8301169050919050565b7f416464726573733a20696e73756666696369656e742062616c616e636520666f60008201527f722063616c6c0000000000000000000000000000000000000000000000000000602082015250565b7f4b5943206e6f7420636f6d706c65746564207965742c2061626f7274696e6700600082015250565b7f43726f776473616c653a2062656e656669636961727920697320746865207a6560008201527f726f206164647265737300000000000000000000000000000000000000000000602082015250565b7f416464726573733a2063616c6c20746f206e6f6e2d636f6e7472616374000000600082015250565b7f5361666545524332303a204552433230206f7065726174696f6e20646964206e60008201527f6f74207375636365656400000000000000000000000000000000000000000000602082015250565b7f5265656e7472616e637947756172643a207265656e7472616e742063616c6c00600082015250565b7f43726f776473616c653a20776569416d6f756e74206973203000000000000000600082015250565b610e6581610c0b565b8114610e7057600080fd5b50565b610e7c81610c1d565b8114610e8757600080fd5b5056fea2646970667358221220034dc37c5c08bf1c6c5da423b30151d1759392fd323e9b37fb613bf844f33b9064736f6c63430008060033",
  "immutableReferences": {},
  "source": "// SPDX-License-Identifier: GPL-3.0\r\n\r\npragma solidity >=0.8.4;\r\n\r\nimport \"./Crowdsale.sol\";\r\nimport \"./KycContract.sol\";\r\n\r\ncontract MyTokenSale is Crowdsale {\r\n\r\n    KycContract kyc;\r\n    constructor(\r\n        uint256 rate,    // rate in TKNbits\r\n        address payable wallet,\r\n        IERC20 token,\r\n        KycContract _kyc\r\n    )\r\n        Crowdsale(rate, wallet, token)\r\n        public\r\n    {\r\n        kyc = _kyc;\r\n    }\r\n    function _preValidatePurchase(address beneficiary, uint256 weiAmount) internal view override {\r\n        super._preValidatePurchase(beneficiary, weiAmount);\r\n        require(kyc.kycCompleted(beneficiary), \"KYC not completed yet, aborting\");\r\n    }\r\n}",
  "sourcePath": "F:/Tutorial/Solidity/s06_tokenization/contracts/MyTokenSale.sol",
  "compiler": {
    "name": "solc",
    "version": "0.8.6+commit.11564f7e.Emscripten.clang"
  },
  "schemaVersion": "3.4.1",
  "updatedAt": "2021-07-13T01:50:52.986Z",
  "networkType": "ethereum",
  "devdoc": {
    "kind": "dev",
    "methods": {
      "buyTokens(address)": {
        "details": "low level token purchase ***DO NOT OVERRIDE*** This function has a non-reentrancy guard, so it shouldn't be called by another `nonReentrant` function.",
        "params": {
          "beneficiary": "Recipient of the token purchase"
        }
      },
      "weiRaised()": {
        "returns": {
          "_0": "the amount of wei raised."
        }
      }
    },
    "version": 1
  },
  "userdoc": {
    "events": {
      "TokensPurchased(address,address,uint256,uint256)": {
        "notice": "Event for token purchase logging"
      }
    },
    "kind": "user",
    "methods": {},
    "version": 1
  }
}